:020000040000FA
:020000000528D1
:040002000034003492
:06000A00831600308500A2
:1000100086008700FF30880083120030850086004C
:100020008700A300A100A200A3004B208600212886
:1000300008181B28272888181E2839280819182866
:1000400021280030A1008500A20087001828081C84
:10005000272809302302031918283C3021020319EC
:100060001828A10A21088500A30A23084B2086002E
:100070001828881C392800302302031918283C301E
:10008000220203191828A20A22088700A3032308C2
:100090004B208600182882073F3406345B344F34E7
:0E00A00066346D347D3407347F346F340800CD
:00000001FF
